{
  "contractName": "SaleToken",
  "abi": [
    {
      "inputs": [
        {
          "internalType": "address",
          "name": "_mintTokenAddress",
          "type": "address"
        }
      ],
      "stateMutability": "nonpayable",
      "type": "constructor"
    },
    {
      "inputs": [],
      "name": "mintTokenAddress",
      "outputs": [
        {
          "internalType": "contract MintToken",
          "name": "",
          "type": "address"
        }
      ],
      "stateMutability": "view",
      "type": "function",
      "constant": true
    },
    {
      "inputs": [
        {
          "internalType": "uint256",
          "name": "",
          "type": "uint256"
        }
      ],
      "name": "onSaleTokenArray",
      "outputs": [
        {
          "internalType": "uint256",
          "name": "",
          "type": "uint256"
        }
      ],
      "stateMutability": "view",
      "type": "function",
      "constant": true
    },
    {
      "inputs": [
        {
          "internalType": "uint256",
          "name": "",
          "type": "uint256"
        }
      ],
      "name": "tokenPrices",
      "outputs": [
        {
          "internalType": "uint256",
          "name": "",
          "type": "uint256"
        }
      ],
      "stateMutability": "view",
      "type": "function",
      "constant": true
    },
    {
      "inputs": [
        {
          "internalType": "uint256",
          "name": "_tokenId",
          "type": "uint256"
        },
        {
          "internalType": "uint256",
          "name": "_price",
          "type": "uint256"
        }
      ],
      "name": "setForSaleToken",
      "outputs": [],
      "stateMutability": "nonpayable",
      "type": "function"
    },
    {
      "inputs": [
        {
          "internalType": "uint256",
          "name": "_tokenId",
          "type": "uint256"
        }
      ],
      "name": "purchaseToken",
      "outputs": [],
      "stateMutability": "payable",
      "type": "function",
      "payable": true
    },
    {
      "inputs": [],
      "name": "getOnSaleTokenArrayLength",
      "outputs": [
        {
          "internalType": "uint256",
          "name": "",
          "type": "uint256"
        }
      ],
      "stateMutability": "view",
      "type": "function",
      "constant": true
    },
    {
      "inputs": [
        {
          "internalType": "uint256",
          "name": "_tokenId",
          "type": "uint256"
        }
      ],
      "name": "cancelOrder",
      "outputs": [],
      "stateMutability": "nonpayable",
      "type": "function"
    },
    {
      "inputs": [
        {
          "internalType": "uint256",
          "name": "_tokenId",
          "type": "uint256"
        }
      ],
      "name": "getTokenPrice",
      "outputs": [
        {
          "internalType": "uint256",
          "name": "",
          "type": "uint256"
        }
      ],
      "stateMutability": "view",
      "type": "function",
      "constant": true
    }
  ],
  "bytecode": "0x60806040523480156200001157600080fd5b50604051620013ec380380620013ec8339818101604052810190620000379190620000e8565b806000806101000a81548173ffffffffffffffffffffffffffffffffffffffff021916908373ffffffffffffffffffffffffffffffffffffffff160217905550506200011a565b600080fd5b600073ffffffffffffffffffffffffffffffffffffffff82169050919050565b6000620000b08262000083565b9050919050565b620000c281620000a3565b8114620000ce57600080fd5b50565b600081519050620000e281620000b7565b92915050565b6000602082840312156200010157620001006200007e565b5b60006200011184828501620000d1565b91505092915050565b6112c2806200012a6000396000f3fe60806040526004361061007b5760003560e01c8063c2db2c421161004e578063c2db2c421461013a578063c457fb3714610156578063d8c89d1d14610193578063e5afe3e6146101be5761007b565b8063514fcac7146100805780636a4c3adf146100a95780637b296e4d146100d2578063b5fc53121461010f575b600080fd5b34801561008c57600080fd5b506100a760048036038101906100a29190610b56565b6101fb565b005b3480156100b557600080fd5b506100d060048036038101906100cb9190610b83565b610453565b005b3480156100de57600080fd5b506100f960048036038101906100f49190610b56565b61071a565b6040516101069190610bd2565b60405180910390f35b34801561011b57600080fd5b5061012461073e565b6040516101319190610c6c565b60405180910390f35b610154600480360381019061014f9190610b56565b610762565b005b34801561016257600080fd5b5061017d60048036038101906101789190610b56565b610ad9565b60405161018a9190610bd2565b60405180910390f35b34801561019f57600080fd5b506101a8610af6565b6040516101b59190610bd2565b60405180910390f35b3480156101ca57600080fd5b506101e560048036038101906101e09190610b56565b610b03565b6040516101f29190610bd2565b60405180910390f35b60008060009054906101000a900473ffffffffffffffffffffffffffffffffffffffff1673ffffffffffffffffffffffffffffffffffffffff16636352211e836040518263ffffffff1660e01b81526004016102579190610bd2565b602060405180830381865afa158015610274573d6000803e3d6000fd5b505050506040513d601f19601f820116820180604052508101906102989190610cc5565b90503373ffffffffffffffffffffffffffffffffffffffff168173ffffffffffffffffffffffffffffffffffffffff1614610308576040517f08c379a00000000000000000000000000000000000000000000000000000000081526004016102ff90610d4f565b60405180910390fd5b600060016000848152602001908152602001600020541161035e576040517f08c379a000000000000000000000000000000000000000000000000000000000815260040161035590610de1565b60405180910390fd5b6000600160008481526020019081526020016000208190555060005b60028054905081101561044e57600060016000600284815481106103a1576103a0610e01565b5b90600052602060002001548152602001908152602001600020540361043b57600260016002805490506103d49190610e5f565b815481106103e5576103e4610e01565b5b90600052602060002001546002828154811061040457610403610e01565b5b9060005260206000200181905550600280548061042457610423610e93565b5b600190038181906000526020600020016000905590555b808061044690610ec2565b91505061037a565b505050565b60008060009054906101000a900473ffffffffffffffffffffffffffffffffffffffff1673ffffffffffffffffffffffffffffffffffffffff16636352211e846040518263ffffffff1660e01b81526004016104af9190610bd2565b602060405180830381865afa1580156104cc573d6000803e3d6000fd5b505050506040513d601f19601f820116820180604052508101906104f09190610cc5565b90503373ffffffffffffffffffffffffffffffffffffffff168173ffffffffffffffffffffffffffffffffffffffff1614610560576040517f08c379a000000000000000000000000000000000000000000000000000000000815260040161055790610d4f565b60405180910390fd5b600082116105a3576040517f08c379a000000000000000000000000000000000000000000000000000000000815260040161059a90610f56565b60405180910390fd5b60006001600085815260200190815260200160002054146105f9576040517f08c379a00000000000000000000000000000000000000000000000000000000081526004016105f090610fc2565b60405180910390fd5b60008054906101000a900473ffffffffffffffffffffffffffffffffffffffff1673ffffffffffffffffffffffffffffffffffffffff1663e985e9c582306040518363ffffffff1660e01b8152600401610654929190610ff1565b602060405180830381865afa158015610671573d6000803e3d6000fd5b505050506040513d601f19601f820116820180604052508101906106959190611052565b6106d4576040517f08c379a00000000000000000000000000000000000000000000000000000000081526004016106cb906110f1565b60405180910390fd5b8160016000858152602001908152602001600020819055506002839080600181540180825580915050600190039060005260206000200160009091909190915055505050565b6002818154811061072a57600080fd5b906000526020600020016000915090505481565b60008054906101000a900473ffffffffffffffffffffffffffffffffffffffff1681565b60006001600083815260200190815260200160002054905060008060009054906101000a900473ffffffffffffffffffffffffffffffffffffffff1673ffffffffffffffffffffffffffffffffffffffff16636352211e846040518263ffffffff1660e01b81526004016107d69190610bd2565b602060405180830381865afa1580156107f3573d6000803e3d6000fd5b505050506040513d601f19601f820116820180604052508101906108179190610cc5565b90506000821161085c576040517f08c379a00000000000000000000000000000000000000000000000000000000081526004016108539061115d565b60405180910390fd5b3482111561089f576040517f08c379a0000000000000000000000000000000000000000000000000000000008152600401610896906111c9565b60405180910390fd5b3373ffffffffffffffffffffffffffffffffffffffff168173ffffffffffffffffffffffffffffffffffffffff160361090d576040517f08c379a000000000000000000000000000000000000000000000000000000000815260040161090490611235565b60405180910390fd5b8073ffffffffffffffffffffffffffffffffffffffff166108fc349081150290604051600060405180830381858888f19350505050158015610953573d6000803e3d6000fd5b5060008054906101000a900473ffffffffffffffffffffffffffffffffffffffff1673ffffffffffffffffffffffffffffffffffffffff166342842e0e8233866040518463ffffffff1660e01b81526004016109b193929190611255565b600060405180830381600087803b1580156109cb57600080fd5b505af11580156109df573d6000803e3d6000fd5b505050506000600160008581526020019081526020016000208190555060005b600280549050811015610ad35760006001600060028481548110610a2657610a25610e01565b5b906000526020600020015481526020019081526020016000205403610ac05760026001600280549050610a599190610e5f565b81548110610a6a57610a69610e01565b5b906000526020600020015460028281548110610a8957610a88610e01565b5b90600052602060002001819055506002805480610aa957610aa8610e93565b5b600190038181906000526020600020016000905590555b8080610acb90610ec2565b9150506109ff565b50505050565b600060016000838152602001908152602001600020549050919050565b6000600280549050905090565b60016020528060005260406000206000915090505481565b600080fd5b6000819050919050565b610b3381610b20565b8114610b3e57600080fd5b50565b600081359050610b5081610b2a565b92915050565b600060208284031215610b6c57610b6b610b1b565b5b6000610b7a84828501610b41565b91505092915050565b60008060408385031215610b9a57610b99610b1b565b5b6000610ba885828601610b41565b9250506020610bb985828601610b41565b9150509250929050565b610bcc81610b20565b82525050565b6000602082019050610be76000830184610bc3565b92915050565b600073ffffffffffffffffffffffffffffffffffffffff82169050919050565b6000819050919050565b6000610c32610c2d610c2884610bed565b610c0d565b610bed565b9050919050565b6000610c4482610c17565b9050919050565b6000610c5682610c39565b9050919050565b610c6681610c4b565b82525050565b6000602082019050610c816000830184610c5d565b92915050565b6000610c9282610bed565b9050919050565b610ca281610c87565b8114610cad57600080fd5b50565b600081519050610cbf81610c99565b92915050565b600060208284031215610cdb57610cda610b1b565b5b6000610ce984828501610cb0565b91505092915050565b600082825260208201905092915050565b7f63616c6c6572206973206e6f7420746f6b656e206f776e65722e000000000000600082015250565b6000610d39601a83610cf2565b9150610d4482610d03565b602082019050919050565b60006020820190508181036000830152610d6881610d2c565b9050919050565b7f54686973206f7264657220697320616c7265616479206f6e2063616e63656c6560008201527f642e000000000000000000000000000000000000000000000000000000000000602082015250565b6000610dcb602283610cf2565b9150610dd682610d6f565b604082019050919050565b60006020820190508181036000830152610dfa81610dbe565b9050919050565b7f4e487b7100000000000000000000000000000000000000000000000000000000600052603260045260246000fd5b7f4e487b7100000000000000000000000000000000000000000000000000000000600052601160045260246000fd5b6000610e6a82610b20565b9150610e7583610b20565b9250828203905081811115610e8d57610e8c610e30565b5b92915050565b7f4e487b7100000000000000000000000000000000000000000000000000000000600052603160045260246000fd5b6000610ecd82610b20565b91507fffffffffffffffffffffffffffffffffffffffffffffffffffffffffffffffff8203610eff57610efe610e30565b5b600182019050919050565b7f7072696365206973207a657265206f72206c6f7765722e000000000000000000600082015250565b6000610f40601783610cf2565b9150610f4b82610f0a565b602082019050919050565b60006020820190508181036000830152610f6f81610f33565b9050919050565b7f5468697320746f6b656e20697320616c7265616479206f6e2073616c652e0000600082015250565b6000610fac601e83610cf2565b9150610fb782610f76565b602082019050919050565b60006020820190508181036000830152610fdb81610f9f565b9050919050565b610feb81610c87565b82525050565b60006040820190506110066000830185610fe2565b6110136020830184610fe2565b9392505050565b60008115159050919050565b61102f8161101a565b811461103a57600080fd5b50565b60008151905061104c81611026565b92915050565b60006020828403121561106857611067610b1b565b5b60006110768482850161103d565b91505092915050565b7f746f6b656e206f776e657220646964206e6f7420617070726f766520746f6b6560008201527f6e2e000000000000000000000000000000000000000000000000000000000000602082015250565b60006110db602283610cf2565b91506110e68261107f565b604082019050919050565b6000602082019050818103600083015261110a816110ce565b9050919050565b7f746f6b656e206973206e6f7420666f722073616c652e00000000000000000000600082015250565b6000611147601683610cf2565b915061115282611111565b602082019050919050565b600060208201905081810360008301526111768161113a565b9050919050565b7f63616c6c65722073656e74206c6f776572207468616e2070726963652e000000600082015250565b60006111b3601d83610cf2565b91506111be8261117d565b602082019050919050565b600060208201905081810360008301526111e2816111a6565b9050919050565b7f63616c6c657220697320746f6b656e206f776e65722e00000000000000000000600082015250565b600061121f601683610cf2565b915061122a826111e9565b602082019050919050565b6000602082019050818103600083015261124e81611212565b9050919050565b600060608201905061126a6000830186610fe2565b6112776020830185610fe2565b6112846040830184610bc3565b94935050505056fea26469706673582212206e5c0af9a0a7ac50893ef31cf76ec3917fb53ae478ca75f78e7ae9e44418a6b264736f6c63430008120033",
  "immutableReferences": {},
  "source": "// SPDX-License-Identifier: MIT\n\npragma solidity ^0.8.18;\n\nimport \"./MintToken.sol\";\n\ncontract SaleToken {\n  // MintToken contract address   \n  MintToken public mintTokenAddress;\n\n  constructor (address _mintTokenAddress) {\n      mintTokenAddress = MintToken(_mintTokenAddress);\n  }\n\n  mapping(uint256 => uint256) public tokenPrices;\n\n  //  token  \n  uint256[] public onSaleTokenArray;\n\n  function setForSaleToken(uint256 _tokenId,uint256 _price) public {\n    address tokenOwner = mintTokenAddress.ownerOf(_tokenId);\n\n    // token owner \n    require(tokenOwner == msg.sender, \"caller is not token owner.\");\n    \n    // price  \n    require(_price > 0, \"price is zere or lower.\");\n    \n    //    \n    require(tokenPrices[_tokenId] == 0, \"This token is already on sale.\");\n\n    // isApprovedForAll  contract    \n    // address(this) SaleToken contract address \n    require(mintTokenAddress.isApprovedForAll(tokenOwner, address(this)),\"token owner did not approve token.\");\n\n    tokenPrices[_tokenId] = _price;\n    onSaleTokenArray.push(_tokenId);\n  }\n\n  function purchaseToken(uint256 _tokenId) public payable {\n      uint256 price = tokenPrices[_tokenId];\n      address tokenOwner = mintTokenAddress.ownerOf(_tokenId);\n\n      //    \n      require(price > 0, \"token is not for sale.\");\n\n      // msg.value      \n      require(price <= msg.value,\"caller sent lower than price.\");\n\n      //     \n      require(tokenOwner != msg.sender,\"caller is token owner.\");\n\n\n      //   tokenOwner \n      payable(tokenOwner).transfer(msg.value);\n      // token  \n      mintTokenAddress.safeTransferFrom(tokenOwner, msg.sender, _tokenId);\n  \n      tokenPrices[_tokenId] = 0;\n\n      for(uint256 i=0;i<onSaleTokenArray.length;i++) {\n          if(tokenPrices[onSaleTokenArray[i]] == 0) {\n              onSaleTokenArray[i] = onSaleTokenArray[onSaleTokenArray.length - 1];\n              onSaleTokenArray.pop();\n          }\n      }\n  }\n\n  function getOnSaleTokenArrayLength() view public returns (uint256) {\n    return onSaleTokenArray.length;\n  }\n\n  function cancelOrder(uint256 _tokenId) public {\n    address tokenOwner = mintTokenAddress.ownerOf(_tokenId);\n\n    // token owner \n    require(tokenOwner == msg.sender, \"caller is not token owner.\");\n        \n    //    \n    require(tokenPrices[_tokenId] > 0, \"This order is already on canceled.\");\n\n    tokenPrices[_tokenId] = 0;\n\n    for(uint256 i=0;i<onSaleTokenArray.length;i++) {\n      if(tokenPrices[onSaleTokenArray[i]] == 0) {\n        onSaleTokenArray[i] = onSaleTokenArray[onSaleTokenArray.length - 1];\n        onSaleTokenArray.pop();\n      }\n    }\n  }\n\n  function getTokenPrice(uint256 _tokenId) public view returns (uint256) {\n    return tokenPrices[_tokenId];\n  }\n}",
  "sourcePath": "/Users/yjlee/Documents/dapp/lecture/contracts/contracts/SaleToken.sol",
  "compiler": {
    "name": "solc",
    "version": "0.8.18+commit.87f61d96.Emscripten.clang"
  },
  "schemaVersion": "3.4.14",
  "updatedAt": "2023-05-29T12:16:44.504Z",
  "networkType": "ethereum",
  "devdoc": {
    "kind": "dev",
    "methods": {},
    "version": 1
  },
  "userdoc": {
    "kind": "user",
    "methods": {},
    "version": 1
  }
}